:100000000C9434000C9446000C9446000C9446006A
:100010000C9446000C9446000C9446000C94460048
:100020000C9446000C9446000C9446000C94460038
:100030000C9446000C9446000C9446000C94460028
:100040000C9446000C9446000C9446000C94460018
:100050000C946B000C9446000C9446000C944600E3
:100060000C9446000C94460011241FBECFEFD8E03C
:10007000DEBFCDBF21E0A0E0B1E001C01D92A730FE
:10008000B207E1F70E94AA000C9427010C9400002B
:10009000289A109206011092050110920401909383
:1000A00003018093020120E830E0309301012093A6
:1000B00000012091040130910501A9014F5F5F4FBC
:1000C0005093050140930401FC01E20FF31F80816E
:1000D0008093C60008951F920F920FB60F921124BD
:1000E0002F933F934F935F938F939F93EF93FF9340
:1000F000209104013091050180910001909101014E
:100100002817390729F4289881E08093060115C043
:100110002091020130910301809104019091050129
:10012000AC014F5F5F4F5093050140930401F9010B
:10013000E80FF91F80818093C600FF91EF919F9196
:100140008F915F914F913F912F910F900FBE0F9024
:100150001F901895CF93DF93CDB7DEB7C058D10964
:100160000FB6F894DEBF0FBECDBF9FB7F894809155
:10017000C00082608093C0008091C1008061809344
:10018000C1008091C10088608093C1008091C2004D
:100190008F778093C2008091C2008F7B8093C200D2
:1001A0008091C2008F7D8093C2008091C2008F7EBB
:1001B0008093C2008091C20088608093C2008091C9
:1001C000C2008B7F8093C2008091C20084608093C4
:1001D000C2008091C20082608093C2001092C5006C
:1001E00080E18093C4009FBF8091C10080688093AC
:1001F000C1008091C10080648093C100209A28983A
:1002000081E0809306017894FE01319680E01E2FF4
:100210000F2F81938F5F8038E1F7812F902F0E94FD
:100220004800809106018823E1F3812F902F0E94DE
:100230004800809106018823E1F32FEF83ED90E3DE
:10024000215080409040E1F700C00000E6CFF894D4
:02025000FFCFDE
:00000001FF
