:100000000C9434000C9451000C9451000C94510049
:100010000C9451000C9455020C9451000C94510016
:100020000C9451000C9451000C9451000C9451000C
:100030000C9451000C9451000C9451000C945100FC
:100040000C94BB020C9451000C9492020C9451003D
:100050000C9416020C9451000C9451000C94510015
:100060000C9451000C94510011241FBECFEFD8E026
:10007000DEBFCDBF11E0A0E0B1E0E2E7F9E002C0F1
:1000800005900D92A630B107D9F723E0A6E0B1E0C4
:1000900001C01D92A43BB207E1F70E9405030C9436
:1000A000B7040C9400002FB78F3F41F4F89480916F
:1000B00080008F7780938000299A15C0811108C035
:1000C000F894809180008F778093800029980BC0EE
:1000D000F8949091800090689093800090E09093C5
:1000E0008900809388002FBF80E0089590910301DC
:1000F000992379F08093AA03E091620391E09E0F27
:1001000090936203F0E0ED59FC4F85831092030158
:1001100008958093AB03E091620391E09E0F90936A
:100120006203F0E0ED59FC4F858381E08093030189
:100130002091670330E0295F3F4FA3E6B3E08FEFE4
:100140009FEFED91E927F0E0EE0FFF1FEF59FE4F13
:1001500040815181982F882784279527AD014356E8
:1001600053404217530768F3892B49F0809161038C
:100170008E7F80936103809161038B7F08C08091A3
:1001800061038E7F8093610380916103846080931B
:10019000610384E691E090930201809301018091D4
:1001A00061038E7F809361038091610382FF05C0AC
:1001B0005C9B02C05C9801C05C9A809161038B7F5C
:1001C000809361030895809160018F5F8093600147
:1001D000209160018091670330E090E0029628173B
:1001E000390741F41092600184E691E09093020196
:1001F000809301010895E091620391E09E0F909336
:100200006203F0E0ED59FC4F858390916703809184
:100210006203981306C086E790E0909302018093F2
:1002200001010895813440F0809161038E7F8093B5
:10023000610384E691E00DC080936703109262032E
:100240008091610381FF03C08BEF90E002C083EED9
:1002500090E09093020180930101089580936603DA
:1002600082E191E0909302018093010108959091C1
:100270000001981721F0909161039D7F03C0909138
:100280006103926090936103809365038EE291E035
:10029000909302018093010108958F3F61F084E6FD
:1002A00091E09093020180930101809161038E7F20
:1002B0008093610308958093640387E391E09093B2
:1002C00002018093010108958F3F91F480936303AD
:1002D0008DE491E09093020180930101809161038C
:1002E000816080936103809161038B7F80936103C0
:1002F00008950895CF93DF93EC018D818E3789F0B7
:100300008F3721F08A3709F08EC015C081E08093C5
:100310005601809155018F3FC9F0809155018F5E44
:1003200007C0809155018823B9F080915501815112
:10033000809355010BC09091560181E0911180E0AE
:100340008093560180915601882319F080915501C0
:1003500001C080E00E9453008B8180930E0181E0F8
:100360008093100189E780931101809100018093AF
:100370000F012091100130E02B5F3F4FACE0B1E066
:100380008FEF9FEFED91E927F0E0EE0FFF1FEF59A0
:10039000FE4F40815181982F882784279527AD01F2
:1003A0004C5051404217530768F390935301809388
:1003B0005401E0911001F0E080915301E45FFE4FA1
:1003C0008583E0911001F0E080915401E35FFE4FDE
:1003D00085838091AF038823E1F380911001289AEF
:1003E0001092AF031092B3031092B2032CE031E0ED
:1003F0003093AE032093AD0390E007969093B10342
:100400008093B0038091B2039091B3039C012F5F5E
:100410003F4F3093B3032093B203FC01E45FFE4FE0
:1004200080818093C600DF91CF9108951F920F9233
:100430000FB60F9211242F933F934F935F938F9397
:100440009F93EF93FF932091B2033091B303809178
:10045000B0039091B1032817390729F4289881E057
:100460008093AF0315C02091AD033091AE0380910E
:10047000B2039091B303AC014F5F5F4F5093B3034E
:100480004093B203F901E80FF91F80818093C60001
:10049000FF91EF919F918F915F914F913F912F919C
:1004A0000F900FBE0F901F9018951F920F920FB6CE
:1004B0000F9211242F933F934F935F936F937F93EA
:1004C0008F939F93AF93BF93EF93FF939BB18091D3
:1004D000AC0389279BB19093AC0384FF12C0809139
:1004E0006D008F7E80936D007894E0910401F0910F
:1004F000050183E693E0099580916D00806180930A
:100500006D00FF91EF91BF91AF919F918F917F917E
:100510006F915F914F913F912F910F900FBE0F9070
:100520001F9018951F920F920FB60F9211242F93C0
:100530003F934F935F936F937F938F939F93AF936B
:10054000BF93EF93FF93E0910101F091020180913D
:10055000C6000995FF91EF91BF91AF919F918F9147
:100560007F916F915F914F913F912F910F900FBEAF
:100570000F901F9018951F920F920FB60F92112493
:100580002F933F938F939F93AF93BF9380915C0181
:1005900090915D01A0915E01B0915F0130915B018E
:1005A00023E0230F2D3720F40196A11DB11D05C0B6
:1005B00026E8230F0296A11DB11D20935B018093B5
:1005C0005C0190935D01A0935E01B0935F01809107
:1005D000570190915801A0915901B0915A0101968B
:1005E000A11DB11D8093570190935801A09359010B
:1005F000B0935A01BF91AF919F918F913F912F91ED
:100600000F900FBE0F901F9018959FB7F894809190
:10061000C00082608093C0008091C100806180939F
:10062000C1008091C10088608093C1008091C200A8
:100630008F778093C2008091C2008F7B8093C2002D
:100640008091C2008F7D8093C2008091C2008F7E16
:100650008093C2008091C20088608093C200809124
:10066000C2008B7F8093C2008091C200846080931F
:10067000C2008091C20082608093C2001092C500C7
:1006800080E18093C4009FBF8091C1008068809307
:10069000C1008091C10080648093C100209A289895
:1006A00081E08093AF037894E1E6F1E020E030E070
:1006B000922F882748E0BC01660F771F97FF06C07E
:1006C000CB0151E2852750E1952701C0CB01415074
:1006D00091F7819391932F5F3F4F211581E0380768
:1006E00039F7549A80916D00806180936D008091FC
:1006F00068008460809368008BB18093AC038FEFB7
:1007000080930C0180930D01259A2D9883E08093AE
:1007100000018AE791E090930501809304017894A9
:1007200085B5826085BD85B5816085BD80916E008F
:10073000816080936E009FB7F894219A8091800029
:100740008160809380008091810088608093810027
:1007500080918000806880938000809180008F7BF2
:1007600080938000809181008B7F809381008091B5
:1007700081008D7F809381008091810081608093D2
:1007800081009FBF88E790E00E9437048093560164
:1007900089E790E00E9437048093550180915601CB
:1007A00080930B018091550180930A01809156013D
:1007B000882319F08091550101C080E00E94530008
:1007C0002FB7F89480915C0190915D01A0915E013A
:1007D000B0915F012FBF8093060190930701A09312
:1007E0000801B09309018091550190910A01981375
:1007F00006C08091560190910B019817A1F32FB775
:10080000F89480915C0190915D01A0915E01B0919E
:100810005F012FBF0091060110910701209108018F
:1008200030910901BC01CD01601B710B820B930B50
:100830000E94510420E030E44CE955E40E948E040B
:1008400087FDD1CF6091560188E790E00E943F0478
:100850008091560180930B016091550189E790E0EA
:100860000E943F048091550180930A01A9CFF99914
:10087000FECF92BD81BDF89A992780B50895262FA5
:10088000F999FECF92BD81BDF89A019700B4021686
:1008900039F01FBA20BD0FB6F894FA9AF99A0FBE34
:1008A0000895E89409C097FB3EF490958095709563
:1008B00061957F4F8F4F9F4F9923A9F0F92F96E9AC
:1008C000BB279395F695879577956795B795F11121
:1008D000F8CFFAF4BB0F11F460FF1BC06F5F7F4FBE
:1008E0008F4F9F4F16C0882311F096E911C07723D0
:1008F00021F09EE8872F762F05C0662371F096E8D9
:10090000862F70E060E02AF09A95660F771F881FA7
:10091000DAF7880F9695879597F908950E949304C2
:1009200008F48FEF0895990F0008550FAA0BE0E81F
:10093000FEEF16161706E807F907C0F012161306A1
:10094000E407F50798F0621B730B840B950B39F4E1
:100950000A2661F0232B242B252B21F408950A2647
:1009600009F4A140A6958FEF811D811D0895F8948B
:02097000FFCFB7
:06097200FE6401017901A1
:00000001FF
