:100000000C9434000C9451000C9451000C94510049
:100010000C9451000C94D7010C9451000C94510095
:100020000C9451000C9451000C9451000C9451000C
:100030000C9451000C9451000C9451000C945100FC
:100040000C9451000C9451000C9414020C94510027
:100050000C9498010C9451000C9451000C94510094
:100060000C9451000C94510011241FBECFEFD8E026
:10007000DEBFCDBF11E0A0E0B1E0ECE9F5E002C0E9
:1000800005900D92A630B107D9F723E0A6E0B1E0C4
:1000900001C01D92AA35B207E1F70E943D020C94FF
:1000A000CC020C94000090910301992379F0809385
:1000B0005003E091080391E09E0F90930803F0E055
:1000C000E75FFC4F858310920301089580935103ED
:1000D000E091080391E09E0F90930803F0E0E75F42
:1000E000FC4F858381E08093030120910D0330E074
:1000F000295F3F4FA9E0B3E08FEF9FEFED91E92734
:10010000F0E0EE0FFF1FE95FFE4F40815181982F15
:10011000882784279527AD0149505340421753073C
:1001200068F3892B49F0809107038E7F8093070342
:10013000809107038B7F08C0809107038E7F809397
:100140000703809107038460809307038FE291E0A7
:1001500090930201809301018091070382FF05C003
:100160005C9B02C05C9808955C9A0895809106019A
:100170008F5F809306012091060180910D0330E08E
:1001800090E002962817390741F4109206018FE299
:1001900091E090930201809301010895E09108039A
:1001A00091E09E0F90930803F0E0E75FFC4F85839A
:1001B00090910D0380910803981306C083E590E0A9
:1001C00090930201809301010895813440F0809161
:1001D00007038E7F809307038FE291E00DC0809329
:1001E0000D03109208038091070381FF03C08EEC7A
:1001F00090E002C086EB90E09093020180930101B1
:10020000089580930C0385EE90E090930201809313
:100210000101089590910001981729F0909107032A
:100220009D7F90930703909107039260909307033B
:1002300080930B0381E091E0909302018093010190
:1002400008958F3F19F08FE291E004C080930A0374
:100250008AE091E0909302018093010108958F3F1D
:1002600091F48093090381E291E0909302018093DD
:100270000101809107038160809307038091070348
:100280008B7F8093070308950895809100018093E8
:100290000C0320910D0330E0B9016B5F7F4FA9E0A3
:1002A000B3E08FEF9FEFED91E927F0E0EE0FFF1F36
:1002B000E95FFE4F40815181982F88278427952739
:1002C000AD01495053404617570768F390935003C8
:1002D00080935103F901E75FFC4F958386838091FA
:1002E00055038823E1F3289A10925503109259037D
:1002F0001092580389E093E0909354038093530342
:10030000295F3F4F30935703209356038091580342
:10031000909159039C012F5F3F4F309359032093D5
:100320005803FC01E75FFC4F80818093C60008956D
:100330001F920F920FB60F9211242F933F934F935A
:100340005F938F939F93EF93FF9320915803309186
:10035000590380915603909157032817390729F4C0
:10036000289881E08093550315C020915303309164
:1003700054038091580390915903AC014F5F5F4F34
:100380005093590340935803F901E80FF91F8081F6
:100390008093C600FF91EF919F918F915F914F9154
:1003A0003F912F910F900FBE0F901F9018951F92A5
:1003B0000F920FB60F9211242F933F934F935F9399
:1003C0006F937F938F939F93AF93BF93EF93FF931D
:1003D0009BB18091520389279BB19093520384FF74
:1003E00012C080916D008F7E80936D007894E091B3
:1003F0000401F091050189E093E0099580916D0079
:10040000806180936D00FF91EF91BF91AF919F91BB
:100410008F917F916F915F914F913F912F910F90AD
:100420000FBE0F901F9018951F920F920FB60F924C
:1004300011242F933F934F935F936F937F938F93E9
:100440009F93AF93BF93EF93FF93E0910101F091DE
:1004500002018091C6000995FF91EF91BF91AF9184
:100460009F918F917F916F915F914F913F912F91CC
:100470000F900FBE0F901F9018959FB7F894809122
:10048000C00082608093C0008091C1008061809331
:10049000C1008091C10088608093C1008091C2003A
:1004A0008F778093C2008091C2008F7B8093C200BF
:1004B0008091C2008F7D8093C2008091C2008F7EA8
:1004C0008093C2008091C20088608093C2008091B6
:1004D000C2008B7F8093C2008091C20084608093B1
:1004E000C2008091C20082608093C2001092C50059
:1004F00080E18093C4009FBF8091C1008068809399
:10050000C1008091C10080648093C100209A289826
:1005100081E0809355037894E7E0F1E020E030E05B
:10052000922F882748E0BC01660F771F97FF06C00F
:10053000CB0151E2852750E1952701C0CB01415005
:1005400091F7819391932F5F3F4F211581E03807F9
:1005500039F7549A80916D00806180936D0080918D
:1005600068008460809368008BB180935203259A61
:100570002D9880EA8093000185E491E09093050135
:10058000809304019FEF23ED50E3915020405040B1
:0C059000E1F700C00000F6CFF894FFCFA8
:06059C00FE2F01014401E5
:00000001FF
