:100000000C9434000C9451000C9451000C94510049
:100010000C9451000C94F9010C9451000C94510073
:100020000C9451000C9451000C9451000C9451000C
:100030000C9451000C9451000C9451000C945100FC
:100040000C9451000C9451000C9436020C94510005
:100050000C94BA010C9451000C9451000C94510072
:100060000C9451000C94510011241FBECFEFD8E026
:10007000DEBFCDBF11E0A0E0B1E0E2E0F6E002C0FB
:1000800005900D92A630B107D9F723E0A6E0B1E0C4
:1000900001C01D92A33AB207E1F70E945F020C94DF
:1000A000FF020C94000090910301992379F0809352
:1000B0009903E091510391E09E0F90935103F0E07A
:1000C000EE5AFC4F858310920301089580939A03A2
:1000D000E091510391E09E0F90935103F0E0EE5AAE
:1000E000FC4F858381E0809303012091560330E02B
:1000F000295F3F4FA2E5B3E08FEF9FEFED91E92736
:10010000F0E0EE0FFF1FE05BFE4F40815181982F22
:10011000882784279527AD0142555340421753073E
:1001200068F3892B49F0809150038E7F80935003B0
:10013000809150038B7F08C0809150038E7F809305
:1001400050038091500384608093500381E491E0D8
:100150009093020180930101809150038E7F8093E0
:1001600050038091500382FF05C05C9B02C05C98E5
:1001700001C05C9A809150038B7F80935003089557
:1001800080914F018F5F80934F0120914F018091AB
:10019000560330E090E002962817390741F4109298
:1001A0004F0181E491E09093020180930101089551
:1001B000E091510391E09E0F90935103F0E0EE5ACD
:1001C000FC4F85839091560380915103981306C08C
:1001D00083E590E0909302018093010108958134BA
:1001E00040F0809150038E7F8093500381E491E032
:1001F0000DC080935603109251038091500381FFEC
:1002000003C088ED90E002C080EC90E09093020182
:10021000809301010895809355038FEE90E09093B1
:10022000020180930101089590910001981721F037
:10023000909150039D7F03C09091500392609093E2
:100240005003809354038BE091E0909302018093DC
:10025000010108958F3F61F081E491E090930201E4
:1002600080930101809150038E7F80935003089505
:100270008093530384E191E0909302018093010104
:1002800008958F3F91F4809352038AE291E0909316
:10029000020180930101809150038160809350039B
:1002A000809150038B7F809350030895089580912F
:1002B000550380935403809100018093550320914E
:1002C000560330E02B5F3F4FA2E5B3E08FEF9FEF87
:1002D000ED91E927F0E0EE0FFF1FE05BFE4F40815C
:1002E0005181982F882784279527AD014255534087
:1002F0004217530768F39093990380939A03E09110
:100300005603F0E080919903EE5AFC4F8583E0910B
:100310005603F0E080919A03ED5AFC4F858380915B
:100320009E038823E1F380915603289A10929E033E
:100330001092A2031092A10322E533E030939D03B3
:1003400020939C0390E007969093A00380939F03D3
:100350008091A1039091A2039C012F5F3F4F3093A6
:10036000A2032093A103FC01EE5AFC4F80818093ED
:10037000C60008951F920F920FB60F9211242F936B
:100380003F934F935F938F939F93EF93FF932091AE
:10039000A1033091A20380919F039091A00328179D
:1003A000390729F4289881E080939E0315C0209195
:1003B0009C0330919D038091A1039091A203AC0115
:1003C0004F5F5F4F5093A2034093A103F901E80FE1
:1003D000F91F80818093C600FF91EF919F918F91CB
:1003E0005F914F913F912F910F900FBE0F901F90F3
:1003F00018951F920F920FB60F9211242F933F93CF
:100400004F935F936F937F938F939F93AF93BF931C
:10041000EF93FF939BB180919B0389279BB19093AE
:100420009B0384FF12C080916D008F7E80936D00CE
:100430007894E0910401F091050182E593E009953B
:1004400080916D00806180936D00FF91EF91BF916D
:10045000AF919F918F917F916F915F914F913F915C
:100460002F910F900FBE0F901F9018951F920F9213
:100470000FB60F9211242F933F934F935F936F9377
:100480007F938F939F93AF93BF93EF93FF93E091ED
:100490000101F09102018091C6000995FF91EF9151
:1004A000BF91AF919F918F917F916F915F914F918C
:1004B0003F912F910F900FBE0F901F9018959FB7EF
:1004C000F8948091C00082608093C0008091C10048
:1004D00080618093C1008091C10088608093C100D9
:1004E0008091C2008F778093C2008091C2008F7B81
:1004F0008093C2008091C2008F7D8093C200809162
:10050000C2008F7E8093C2008091C2008860809379
:10051000C2008091C2008B7F8093C2008091C20094
:1005200084608093C2008091C20082608093C20088
:100530001092C50080E18093C4009FBF8091C100EC
:1005400080688093C1008091C10080648093C10065
:10055000209A289881E080939E037894E0E5F1E06A
:1005600020E030E0922F882748E0BC01660F771F1B
:1005700097FF06C0CB0151E2852750E1952701C0C6
:10058000CB01415091F7819391932F5F3F4F2115FC
:1005900081E0380739F7549A80916D00806180932B
:1005A0006D00809168008460809368008BB18093B7
:1005B0009B038FEF8093060180930701259A2D9866
:1005C00083E08093000187E591E09093050180939B
:1005D000040180E18093080182E080930A0183E2B4
:1005E00080930B0182E180930C019FEF23ED50E398
:1005F000915020405040E1F700C00000F6CFF89441
:02060000FFCF2A
:06060200FE41010156015A
:00000001FF
