:100000000C9434000C9451000C9451000C94510049
:100010000C9451000C9463020C9451000C94510008
:100020000C9451000C9451000C9451000C9451000C
:100030000C9451000C9451000C9451000C945100FC
:100040000C94C9020C9451000C94A0020C94510021
:100050000C9424020C9451000C9451000C94510007
:100060000C9451000C94510011241FBECFEFD8E026
:10007000DEBFCDBF11E0A0E0B1E0EAEEF7E002C0E4
:1000800005900D92A830B107D9F723E0A8E0B1E0C0
:1000900001C01D92AE3AB207E1F70E9413030C941F
:1000A000F3030C94000090910401992379F080935C
:1000B000A403E0915C0391E09E0F90935C03F0E059
:1000C000E35AFC4F85831092040108958093A503A1
:1000D000E0915C0391E09E0F90935C03F0E0E35AA3
:1000E000FC4F858381E0809304012091610330E01F
:1000F000295F3F4FADE5B3E08FEF9FEFED91E9272B
:10010000F0E0EE0FFF1FE55AFE4F40815181982F1E
:10011000882784279527AD014D5553404217530733
:1001200068F3892B49F080915B038E7F80935B039A
:1001300080915B038B7F08C080915B038E7F8093EF
:100140005B0380915B03846080935B0381E491E0B7
:10015000909303018093020180915B038E7F8093D3
:100160005B0380915B0382FF05C05C9B02C05C98CF
:1001700001C05C9A80915B038B7F80935B03089541
:1001800080915A018F5F80935A0120915A0180918A
:10019000610330E090E002962817390741F410928D
:1001A0005A0181E491E09093030180930201089544
:1001B000E0915C0391E09E0F90935C03F0E0E35AC2
:1001C000FC4F85839091610380915C03981306C076
:1001D00083E590E0909303018093020108958134B8
:1001E00040F080915B038E7F80935B0381E491E01C
:1001F0000DC08093610310925C0380915B0381FFCB
:1002000003C088ED90E002C080EC90E09093030181
:10021000809302010895809360038FEE90E09093A5
:10022000030180930201089590910101981721F034
:1002300090915B039D7F03C090915B0392609093CC
:100240005B0380935F038BE091E0909303018093C5
:10025000020108958F3F61F081E491E090930301E2
:100260008093020180915B038E7F80935B030895EE
:1002700080935E0384E191E09093030180930201F7
:1002800008958F3F91F480935D038AE291E090930B
:1002900003018093020180915B03816080935B0383
:1002A00080915B038B7F80935B030895089578941E
:1002B00085B5826085BD85B5816085BDEEE6F0E0DF
:1002C00080818160808308952FB7F89480917C00AD
:1002D000807F80937C0080917C0080937C00809163
:1002E0007A00806480937A0080917A0086FDFCCF4A
:1002F000809178003091790090E0932B2FBF893363
:1003000021E0920750F1883C924048F54A9923C079
:100310008FB7F89440915601509157016091580160
:10032000709159018FBF2FB7F89480915601909129
:100330005701A0915801B09159012FBF841B950B13
:10034000A60BB70B84369105A105B10510F44A9BA5
:10035000EACF4A9B06C08BE708958FE708958EE7A2
:1003600008958AE70895FC012581203409F06BC0C7
:10037000838180930A0181E080930C0180910001C8
:1003800080930D018091010180930B0120910C015C
:1003900030E02B5F3F4FA8E0B1E08FEF9FEFED9192
:1003A000E927F0E0EE0FFF1FE55AFE4F4081518133
:1003B000982F882784279527AD0148505140421730
:1003C000530768F390934F0180935001E0910C0123
:1003D000F0E080914F01E85FFE4F8583E0910C01D2
:1003E000F0E080915001E75FFE4F85838091A90383
:1003F0008823E1F380910C01289A1092A9031092AE
:10040000AD031092AC0328E031E03093A8032093B1
:10041000A70390E007969093AB038093AA03809183
:10042000AC039091AD039C012F5F3F4F3093AD0320
:100430002093AC03FC01E85FFE4F80818093C600EF
:100440008BE78093000108951F920F920FB60F92D1
:1004500011242F933F934F935F938F939F93EF9329
:10046000FF932091AC033091AD038091AA0390914A
:10047000AB032817390729F4289881E08093A90352
:1004800015C02091A7033091A8038091AC039091EF
:10049000AD03AC014F5F5F4F5093AD034093AC038E
:1004A000F901E80FF91F80818093C600FF91EF9159
:1004B0009F918F915F914F913F912F910F900FBE20
:1004C0000F901F9018951F920F920FB60F92112444
:1004D0002F933F934F935F936F937F938F939F934C
:1004E000AF93BF93EF93FF939BB18091A6038927AE
:1004F0009BB19093A60384FF12C080916D008F7E04
:1005000080936D007894E0910501F09106018DE5EE
:1005100093E0099580916D00806180936D00FF915B
:10052000EF91BF91AF919F918F917F916F915F916B
:100530004F913F912F910F900FBE0F901F901895E4
:100540001F920F920FB60F9211242F933F934F9348
:100550005F936F937F938F939F93AF93BF93EF932B
:10056000FF93E0910201F09103018091C60009958B
:10057000FF91EF91BF91AF919F918F917F916F917B
:100580005F914F913F912F910F900FBE0F901F9051
:1005900018951F920F920FB60F9211242F933F932D
:1005A0008F939F93AF93BF93809156019091570182
:1005B000A0915801B09159013091550123E0230FCA
:1005C0002D3720F40196A11DB11D05C026E8230F8B
:1005D0000296A11DB11D2093550180935601909361
:1005E0005701A0935801B093590180915101909106
:1005F0005201A0915301B09154010196A11DB11D6A
:100600008093510190935201A0935301B0935401F0
:10061000BF91AF919F918F913F912F910F900FBEFE
:100620000F901F9018959FB7F8948091C00082603A
:100630008093C0008091C10080618093C10080914F
:10064000C10088608093C1008091C2008F77809341
:10065000C2008091C2008F7B8093C2008091C20053
:100660008F7D8093C2008091C2008F7E8093C200F4
:100670008091C20088608093C2008091C2008B7F0D
:100680008093C2008091C20084608093C2008091F8
:10069000C20082608093C2001092C50080E1809306
:1006A000C4009FBF8091C10080688093C100809189
:1006B000C10080648093C100209A289881E08093D3
:1006C000A9037894EBE5F1E020E030E0922F882751
:1006D00048E0BC01660F771F97FF06C0CB0151E2CF
:1006E000852750E1952701C0CB01415091F78193B7
:1006F00091932F5F3F4F211581E0380739F7549AC6
:1007000080916D00806180936D00809168008460AD
:10071000809368008BB18093A6038FEF80930801CC
:1007200080930901259A2D9882E08093010183EB43
:1007300091E090930601809305010E9457018091FA
:100740007C008F7780937C0080917C008064809314
:100750007C0080917C008F7D80937C0080917A006A
:10076000846080937A0080917A00826080937A001E
:1007700080917A00816080937A0080917A0080680D
:1007800080937A000E94570152985A9A0E946401FD
:1007900080930001809100018A3729F40E9464014E
:1007A0008A37A1F7FBCF8FB7F8944091560150914B
:1007B000570160915801709159018FBF2FB7F8947C
:1007C0008091560190915701A0915801B091590123
:1007D0002FBF841B950BA60BB70B86399105A1057E
:0A07E000B10560F3D3CFF894FFCF0A
:0807EA007BFE410101560100F4
:00000001FF
