:100000000C9434000C9451000C9451000C94510049
:100010000C9451000C9427020C9451000C94510044
:100020000C9451000C9451000C9451000C9451000C
:100030000C9451000C9451000C9451000C945100FC
:100040000C948D020C9451000C9464020C94510099
:100050000C94E8010C9451000C9451000C94510044
:100060000C9451000C94510011241FBECFEFD8E026
:10007000DEBFCDBF11E0A0E0B1E0E8EFF7E002C0E5
:1000800005900D92A630B107D9F723E0A6E0B1E0C4
:1000900001C01D92AD3AB207E1F70E94D7020C945D
:1000A000FA030C940000809105018093660320916F
:1000B000670330E02B5F3F4FA3E6B3E08FEF9FEF86
:1000C000ED91E927F0E0EE0FFF1FED59FE4F408163
:1000D0005181982F882784279527AD014356534097
:1000E0004217530768F39093AA038093AB03E09100
:1000F0006703F0E08091AA03ED59FC4F8583E091FE
:100100006703F0E08091AB03EC59FC4F858380914D
:10011000AC038823E1F380916703289A1092AC0323
:10012000109262011092610123E633E03093600186
:1001300020935F0190E0079690935E0180935D01AC
:1001400080916101909162019C012F5F3F4F30933C
:10015000620120936101FC01ED59FC4F8081809385
:10016000C600089590910201992379F080935A0175
:10017000E091120191E09E0F90931201F0E0ED5E8C
:10018000FE4F858310920201089580935B01E091F8
:10019000120191E09E0F90931201F0E0ED5EFE4F90
:1001A000858381E0809302012091170130E0295F6F
:1001B0003F4FA3E1B1E08FEF9FEFED91E927F0E032
:1001C000EE0FFF1FED59FE4F40815181982F882778
:1001D00084279527AD01435151404217530768F3D7
:1001E000892B49F0809111018E7F809311018091BC
:1001F00011018B7F08C0809111018E7F80931101C6
:100200008091110184608093110180EA91E09093C4
:10021000010180930001809111018E7F8093110173
:100220008091110182FF05C05C9B02C05C9801C0F7
:100230005C9A809111018B7F8093110108958091C8
:1002400010018F5F809310012091100180911701A0
:1002500030E090E002962817390741F4109210011F
:1002600080EA91E090930101809300010895E0916C
:10027000120191E09E0F90931201F0E0ED5EFE4FAF
:1002800085839091170180911201981306C082EB2B
:1002900090E090930101809300010895813440F033
:1002A000809111018E7F8093110180EA91E00DC051
:1002B00080931701109212018091110181FF03C0F8
:1002C00087E391E002C08FE191E090930101809378
:1002D00000010895809316018EE491E0909301014E
:1002E00080930001089590910501981721F0909155
:1002F00011019D7F03C090911101926090931101B3
:10030000809315018AE691E09093010180930001AA
:1003100008958F3F61F080EA91E09093010180930E
:100320000001809111018E7F8093110108958093C7
:10033000140183E791E090930101809300010895F7
:100340008F3F91F48093130189E891E0909301012C
:10035000809300018091110181608093110180914F
:1003600011018B7F8093110108950895789485B5CC
:10037000826085BD85B5816085BDEEE6F0E0808157
:10038000816080830895FC012581838180936503CA
:1003900081E08093670380910601203449F4813025
:1003A00059F0823019F08F3F59F408C08AE709C02C
:1003B0008F3F21F0813021F48FE703C08EE701C029
:1003C0008BE7809368030E94530010920601089502
:1003D0001F920F920FB60F9211242F933F934F93BA
:1003E0005F938F939F93EF93FF93209161013091DF
:1003F000620180915D0190915E012817390729F40F
:10040000289881E08093AC0315C020915F01309162
:1004100060018091610190916201AC014F5F5F4F7B
:100420005093620140936101F901E80FF91F808147
:100430008093C600FF91EF919F918F915F914F91B3
:100440003F912F910F900FBE0F901F9018951F9204
:100450000F920FB60F9211242F933F934F935F93F8
:100460006F937F938F939F93AF93BF93EF93FF937C
:100470009BB180915C0189279BB190935C0184FFC3
:1004800012C080916D008F7E80936D007894E09112
:100490000301F091040183E191E0099580916D00E1
:1004A000806180936D00FF91EF91BF91AF919F911B
:1004B0008F917F916F915F914F913F912F910F900D
:1004C0000FBE0F901F9018951F920F920FB60F92AC
:1004D00011242F933F934F935F936F937F938F9349
:1004E0009F93AF93BF93EF93FF93E0910001F0913F
:1004F00001018091C6000995FF91EF91BF91AF91E5
:100500009F918F917F916F915F914F913F912F912B
:100510000F900FBE0F901F9018951F920F920FB65D
:100520000F9211242F933F938F939F93AF93BF9379
:1005300080910C0190910D01A0910E01B0910F01DD
:1005400030910B0123E0230F2D3720F40196A11DDC
:10055000B11D05C026E8230F0296A11DB11D2093F1
:100560000B0180930C0190930D01A0930E01B093A9
:100570000F018091070190910801A0910901B091AC
:100580000A010196A11DB11D8093070190930801F6
:10059000A0930901B0930A01BF91AF919F918F91F0
:1005A0003F912F910F900FBE0F901F9018959FB7FE
:1005B000F8948091C00082608093C0008091C10057
:1005C00080618093C1008091C10088608093C100E8
:1005D0008091C2008F778093C2008091C2008F7B90
:1005E0008093C2008091C2008F7D8093C200809171
:1005F000C2008F7E8093C2008091C2008860809389
:10060000C2008091C2008B7F8093C2008091C200A3
:1006100084608093C2008091C20082608093C20097
:100620001092C50080E18093C4009FBF8091C100FB
:1006300080688093C1008091C10080648093C10074
:10064000209A289881E08093AC037894E3E6F1E067
:1006500020E030E0922F882748E0BC01660F771F2A
:1006600097FF06C0CB0151E2852750E1952701C0D5
:10067000CB01415091F7819391932F5F3F4F21150B
:1006800081E0380739F7549A80916D00806180933A
:100690006D00809168008460809368008BB18093C6
:1006A0005C018FEF8093630380936403259A2D98F8
:1006B00082E08093050183EC91E0909304018093A4
:1006C00003010E94B60180917C008F7780937C00AB
:1006D00080917C00806480937C0080917C008F7D81
:1006E00080937C0080917A00846080937A0080916E
:1006F0007A00826080937A0080917A008160809392
:100700007A0080917A00806880937A000E94B60116
:1007100052985A9A2FB7F89480917C00807F8093EA
:100720007C0080917C0080937C0080917A008064C2
:1007300080937A0080917A0086FDFCCF80917800CA
:100740003091790090E0932B2FBF893321E09207FD
:1007500050F1883C924048F54A9923C08FB7F894ED
:1007600040910C0150910D0160910E0170910F01AB
:100770008FBF2FB7F89480910C0190910D01A0913B
:100780000E01B0910F012FBF841B950BA60BB70B69
:1007900084369105A105B10510F44A9BEACF4A9B26
:1007A00006C080E005C081E003C08FEF01C082E099
:1007B000809306018FB7F89440910C0150910D0180
:1007C00060910E0170910F018FBF2FB7F894809147
:1007D0000C0190910D01A0910E01B0910F012FBF5E
:1007E000841B950BA60BB70B86399105A105B105A6
:0807F00060F390CFF894FFCFF5
:0607F800A00101B501FEA5
:00000001FF
